:020000040800F2
:1000000000000220511C0008710900087309000853
:100010007509000877090008790900080000000048
:100020000000000000000000000000007B09000844
:100030007D090008000000007F0900088109000810
:10004000A11C0008A11C0008A11C0008A11C00089C
:10005000A11C0008A11C0008A11C0008A11C00088C
:10006000A11C0008A11C0008A11C0008A11C00087C
:10007000A11C0008A11C0008A11C0008A11C00086C
:10008000A11C0008A11C0008A11C0008A11C00085C
:10009000A11C0008A11C0008A11C0008A11C00084C
:1000A000A11C0008A11C0008A11C0008A11C00083C
:1000B000A11C0008A11C0008A11C0008A11C00082C
:1000C000A11C0008A11C0008A11C0008A11C00081C
:1000D000A11C0008A11C0008A11C0008A11C00080C
:1000E000A11C0008A11C000800000000A11C0008C1
:1000F000A11C0008A11C0008A11C0008A11C0008EC
:10010000A11C0008A11C0008A11C0008A11C0008DB
:10011000A11C0008A11C0008A11C0008A11C0008CB
:10012000A11C0008A11C0008A11C0008A11C0008BB
:10013000A11C0008A11C0008A11C0008A11C0008AB
:1001400000000000000000000000000000000000AF
:10015000A11C0008A11C0008A11C0008A11C00088B
:10016000A11C0008A11C0008A11C0008A11C00087B
:10017000A11C0008A11C0008A11C0008A11C00086B
:10018000A11C0008A11C0008A11C0008A11C00085B
:10019000A11C0008A11C0008A11C0008A11C00084B
:1001A000A11C0008A11C0008A11C0008A11C00083B
:1001B000A11C0008A11C0008A11C0008A11C00082B
:1001C000A11C0008A11C0008A11C0008A11C00081B
:1001D000A11C0008A11C0008A11C0008A11C00080B
:1001E000A11C0008A11C0008A11C0008A11C0008FB
:1001F000A11C0008A11C0008A11C0008A11C0008EB
:10020000A11C0008A11C0008A11C0008A11C0008DA
:10021000A11C0008A11C0008A11C0008A11C0008CA
:10022000A11C0008A11C0008A11C0008000000007F
:10023000A11C0008A11C000800000000A11C00086F
:10024000A11C0008A11C0008A11C0008A11C00089A
:10025000A11C0008A11C0008A11C0008A11C00088A
:10026000A11C0008A11C0008A11C0008A11C00087A
:10027000A11C0008A11C0008A11C0008000000002F
:10028000A11C0008A11C0008A11C0008000000001F
:1002900000000000A11C000810B5054C237833B9FC
:1002A000044B13B10448AFF300800123237010BD49
:1002B0003C04002000000000081E000808B5034BA5
:1002C0001BB103490348AFF3008008BD00000000E4
:1002D00040040020081E000880B59CB0BFF34F8F7B
:1002E000BFF36F8F684B0021C3F85012BFF34F8FDD
:1002F000BFF36F8F5A6942F400325A61BFF34F8FD8
:10030000BFF36F8FC3F88410BFF34F8FD3F88020F3
:1003100043F6E076C2F3C904C2F34E32A507520198
:1003200002EA060C284621464CEA0007013900F192
:100330004040C3F860724F1CF6D1203A12F1200FF2
:10034000EED1BFF34F8F5A6942F480325A61BFF346
:100350004F8FBFF36F8F00F079FB022000F016FD86
:1003600000230093494BDA6A22F00102DA62DB6A69
:1003700003F001030093464B9A6942F440429A61AC
:100380009A6902F440420092009A9A699404FCD55A
:100390004FF480334FF0010E0520A02102220424E7
:1003A00008251692189217941995CDE909E30023B0
:1003B000CDE9140109A80C9310931B931A93CDE96E
:1003C000122201F005F800B1FEE703234FF03F0CC5
:1003D0004FF480622146CDE901C34023CDE90305F6
:1003E00001A8CDE90533CDE9072301F00DFB00B1EC
:1003F000FEE700F0BBF900B1FEE7BFF34F8FBFF39C
:100400006F8F214B5A6922F400325A61C3F85002AF
:10041000BFF34F8FBFF36F8FC3F88400BFF34F8FCD
:100420005A6922F480325A61BFF34F8FD3F880208B
:1004300043F6E076C2F3C904C2F34E32A507520177
:1004400002EA060C284621464CEA0007013900F171
:100450004040C3F874724F1CF6D1203A12F1200FBD
:10046000EED1BFF34F8FBFF36F8F0A4B00221A609C
:10047000094B0A4A1B6813604FF01042126882F35E
:1004800008889847FEE700BF00ED00E00004005830
:100490000048025810E000E00400009058040020DA
:1004A0007B4B2DE9F04FD3F8D42091B0794D09243E
:1004B00042F480420026784F0BA9C3F8D420284686
:1004C000D3F8D4204FF040084FF00A0BDFF8D0A14A
:1004D00002F480424FF400790092009ADA6F42F4FD
:1004E0008042DA67DA6F22F48042DA67D3F8E020DC
:1004F00042F02002C3F8E020D3F8E02002F020020E
:100500000192019AD3F8E02042F00802C3F8E020FB
:10051000D3F8E02002F008020292029AD3F8E02019
:1005200042F02002C3F8E020D3F8E02002F02002DD
:100530000392039AD3F8E02042F02002C3F8E020AF
:10054000D3F8E02002F020020492049AD3F8E020CD
:1005500042F02002C3F8E020D3F8E02002F02002AD
:100560000592059AD3F8E02042F04002C3F8E0205B
:10057000D3F8E02002F040020692069AD3F8E02079
:1005800042F08002C3F8E020D3F8E02002F08002BD
:100590000792079AD3F8E02042F08002C3F8E020E7
:1005A000D3F8E02002F080020892089AD3F8E02005
:1005B00042F04002C3F8E020D3F8E02002F040020D
:1005C0000992099AD3F8E02042F04002C3F8E020F3
:1005D0004FF48062D3F8E03003F040030A930A9BA3
:1005E0000223CDE90B230323CDE90D630F9400F023
:1005F000DBFA01230BA93846CDF82C800D93CDF8FA
:100600003CB000F0D1FA4FF400630BA923480B93E0
:100610000D960F9400F0C8FA04230BA950460F94CE
:100620000B9300F0C1FA0BA92846CDF82C90CDF819
:100630003CB000F0B9FA08230BA950460F940B9375
:1006400000F0B2FA80230BA928460F940B9300F018
:10065000ABFA0BA93846CDF82C9000F0A5FA0BA9FF
:100660002846CDF82C8000F09FFA4FF480430BA968
:1006700038460B9300F098FA32460F215C2000F0C8
:100680003DFA5C2000F06CFA11B0BDE8F08F00BFBD
:10069000004402580014025800180258000C025876
:1006A000001C025800B54FF4407395B04FF04072F3
:1006B00011480C9305230F920222069300230B92FC
:1006C00006A913930093049303926A46CDE90D3370
:1006D000CDE91133102302934FF48003059340F2C8
:1006E0000113019341F2883300F0D9FD003018BFA7
:1006F000012015B05DF804FB5C04002000B54FF448
:10070000407395B041F2883217480C93062306A92E
:1007100006930023CDE90D330F930B931393CDE98B
:10072000113300F0BCFCE8B940F2022302224FF47E
:10073000800104900C48CDE900331023CDE902324A
:1007400005236A46CDE905134FF0407306A90F93C0
:1007500041F2883300F0A3FD003018BF012015B02E
:100760005DF804FB0120FAE75C0400202DE9F0436A
:100770007D4C9DB07D4B2046236000F074FC074605
:1007800008B10124ECE0FFF78BFE01250323C4E947
:1007900001351023E3604FF0006393FAA3F3B3FA3B
:1007A00083F34FF440762046E761013B2361402309
:1007B000C4E90567236200F0F7FB0028E1D14FF49C
:1007C00080774FF06609099041F2883205906946BA
:1007D0000D900697CDF80090CDE90700CDE90B000C
:1007E000204600F05CFC0028CBD14FF0990841F284
:1007F000883269462046CDF8008000F050FC002881
:10080000BFD141F28832694620460696CDF8009065
:1008100000F045FC0028B4D141F2883269462046F8
:10082000CDF8008000F03BFC0028AAD135231790BA
:10083000139041F288321B900EA914970E93CDE9C4
:100840001500CDE91900204600F029FC002898D1B8
:10085000FFF728FF002894D1B723149617900E9322
:1008600013901B90CDE91500CDE91900FFF746FF65
:10087000002886D141F288320EA9204600F00FFCF4
:1008800000287FF47EAFFFF70DFF00287FF479AFDB
:1008900085234FF440764FF04075ADF800000E937D
:1008A0000223139041F288320EA914961795CDE9D0
:1008B0001500CDE91830CDE91A002B4800F0EFFB08
:1008C00000287FF45EAF41F288326946264800F086
:1008D00085FC00287FF455AFFFF710FF0446002881
:1008E0007FF44FAF812341F288320EA91E480E9348
:1008F000BDF8003023F0F0031B051B0D43F400434B
:1009000043F08003ADF8003000F0C9FB00287FF40D
:1009100038AF41F288326946134800F003FC0028E2
:100920007FF42FAFED236A460EA90F480E934FF4C4
:1009300040631B9415934FF4405314961193052371
:10094000CDE9164513934FF000454FF08043CDE9B4
:100950000044CDE9195300F0F7FC002818BF01242A
:1009600020461DB0BDE8F0835C040020005000521A
:100970007047FEE7FEE7FEE7FEE770477047704707
:1009800000F092B81849194810B5D1F8883043F4EE
:100990007003C1F88830164B1A6842F001021A60E1
:1009A00000221A611C68204018609A61DA611A629C
:1009B0009A62DA621A635A639A63DA631A645A644F
:1009C000186820F4802018601A660A4B1B681B0CFC
:1009D0001B04B3F1005F02D2074B01221A604FF0F3
:1009E00000638B6010BD00BF00ED00E07FEDF6EA14
:1009F000004402580010005C08810051704700005C
:100A000038B50F4B0546187808B9012038BD4FF4AA
:100A10007A730C4AB3FBF0F31068B0FBF3F000F00C
:100A2000ADF804460028F0D10F2DEED80246294635
:100A30004FF0FF3000F062F8034B20461D60E5E701
:100A400008000020000000200C00002010B503204A
:100A500000F042F800F03CFF0F49104A8B69C3F3E5
:100A60000323D35C03F01F03D8400D4B18608B6940
:100A700003F00F03D35C03F01F03D840094B186049
:100A80000F20FFF7BDFF044618B9FFF7B7FF204658
:100A900010BD0124FBE700BF00440258201E0008DF
:100AA0000000002004000020034A044B11681B785A
:100AB0000B441360704700BFA8040020080000200A
:100AC000014B1868704700BFA8040020014B18684C
:100AD000000C70470010005C074A0002D36800F465
:100AE000E06023F4E0631B041B0C43F0BF6343F49A
:100AF00000330343D360704700ED00E0164B70B540
:100B0000DC684FF0FF36C4F30224C4F10705231D4F
:100B1000042D28BF0425062B06FA05F38CBF033CE1
:100B20000024002821EA030303FA04F306FA04F47C
:100B300022EA040443EA04034FEA0313DBB206DBB0
:100B400000F1604000F5614080F8003370BD00F0B6
:100B50000F00024A1354F9E700ED00E014ED00E045
:100B6000002808DB4209012300F01F0003FA00F00F
:100B7000014B43F82200704700E100E00138B0F17A
:100B8000807F0AD2064BF021064A5860002082F886
:100B90002310072298601A6070470120704700BF39
:100BA00010E000E000ED00E04FF0B04C00232DE934
:100BB000F74F724EE246DFF8D0B10A6832FA03F41A
:100BC00002D103B0BDE8F08F4FF0010E0EFA03FE24
:100BD0001EEA020200F0BD804C6824F01004022CD2
:100BE00014D14FEAD30803F007090F2500EB88085A
:100BF0004FEA8909D8F8204005FA09F524EA0505E5
:100C00000C6904FA09F42C43C8F820404FEA430861
:100C10004FF003094C6809FA08F9056804F0030469
:100C20006FEA090904FA08F409EA05052C4304608F
:100C30004D6825F01005013D012D11D88468CD685F
:100C400009EA040405FA08F525438560446824EAA6
:100C50000E0E4C68C4F300149C4044EA0E04446039
:100C6000C46809EA04098C6804FA08F444EA09042F
:100C7000C4604C68E4006CD5414D03F0030E4FF0A6
:100C80000F08D5F8F4404FEA8E0E44F00204C5F880
:100C9000F440D5F8F44023F0030505F1B04504F025
:100CA000020405F580650194019C08FA0EF4D5F85C
:100CB000089029EA0408334CA0424CD004F5806423
:100CC000A0424AD004F58064A04248D0584548D09C
:100CD00004F50064A04246D004F58064A04244D0EC
:100CE00004F58064A04242D004F58064A04240D064
:100CF00004F58064A0423ED004F58064A0420CBF9D
:100D000009240A2404FA0EF444EA0804AC60D5432A
:100D10004F683468FF034CBF14432C4034604F6865
:100D20007468BF034CBF14432C4074604F68DCF8F8
:100D30000040FF024CBF14432C40CAF800404F68EB
:100D4000DAF80440BF0254BF05EA04022243CCF89B
:100D50000420013331E70024D4E70124D2E7022440
:100D6000D0E70324CEE70424CCE70524CAE7062411
:100D7000C8E70724C6E70824C4E700BF800000587E
:100D80000044025800000258000C025838B5104CBC
:100D9000E36813F0040FE36805D103F00703181AA2
:100DA00018BF012038BD23F007031843E060FFF7A8
:100DB00087FE054663689B0401D50020F2E7FFF734
:100DC0007FFE401BB0F57A7FF4D90120EAE700BF2F
:100DD000004802584B6A2DE9F04733B1B2F1406F39
:100DE00003D08B6A0468013B23618B690C6A002B7A
:100DF00067D00568002C35D08B68EB61CC694B6AF5
:100E000005688F69D1F820C0D1F83480D1F810E09E
:100E10000E68D1E90BA9A4B144EA0A04144344EAD8
:100E2000090444EA08042343CC6843EA0E0343EA76
:100E30000C0323433B434C69334343EA84436B61D4
:100E40002AE04AEA0904144344EA0804234343EA33
:100E50000E0343EA0C033B4333434E6943EA8646A1
:100E60006E612CE04E69CC69D1F80090B604D1F8DF
:100E700024804F6BD1E90BECACB11C43CB6814431D
:100E800044EA090444EA080444EA0E0444EA0C046F
:100E90003C431C4334436C61B2F1406F0FD0036894
:100EA0004A689A610BE043EA0903134343EA0803E3
:100EB00043EA0E0343EA0C033B4333436B61BDE853
:100EC000F08744B303688C68DC61CC69D1F8248076
:100ED00005688E69D1F820C04B6BD1F810E0D1E9DC
:100EE0000B796CB13C43144344EA09042343CC68B6
:100EF00043EA080343EA0E0343EA0C0323439AE759
:100F000047EA09042243134343EA080343EA0E0372
:100F100043EA0C03A0E7CD694B6A7DB12B43CD6A50
:100F2000046813432B430D6B2B434D6B2B43CD6850
:100F30002B434D6943EA85436361ADE7002BBED087
:100F4000CC6A0068234313430A6B13434A6B134371
:100F50004A6943EA82434361B1E72DE9F041069DC6
:100F600004460F461646984621688A683A4214BFDE
:100F700001220022B24201D1002011E06B1CF4D00A
:100F8000FFF79EFDA0EB0800A84201D8002DEBD191
:100F90000423012084F84130636C43F0010363644F
:100FA000BDE8F0817047000037B50446FFF788FDC3
:100FB0000546002C4FD094F84030012B4DD0012332
:100FC00084F8403094F8412002F0FF033AB984F8E5
:100FD00040302046FFF7E6FF41F28833A3642068E3
:100FE000A1680268013922F4706242EA01222021DC
:100FF00002600022A36C204600932B46FFF7ADFF52
:1010000020BB2168E569E3680A682B43256A22F062
:101010007F422B43656822F0D00243EA0563134305
:101020000B602168D4E905324D681343226943EA15
:1010300002430B4A2A4013434B602268136843F073
:10104000010313600123606484F84130002384F8B5
:10105000403003B030BD0120FBE70220F9E700BFBC
:10106000FEF8E0FF704710B50446A0B190F840309C
:10107000012B12D00268012380F84030136823F05E
:1010800001031360FFF7EEFF0020606484F8410065
:1010900084F8400010BD0120FCE70220FAE72DE9AA
:1010A000F34704468A469146FFF70AFD94F840301C
:1010B0008046012B34D00123022784F8403094F875
:1010C0004160F6B29E4229D100220346CDF800903D
:1010D00020216264204684F84170FFF73EFF0546F8
:1010E000A8B9024651462046FFF774FEDAF82430CC
:1010F0005BB9CDF800904346324639462046FFF7AB
:101100002CFF054618B92368DF6084F8416000238E
:1011100084F84030284602B0BDE8F0873D46F6E747
:101120000225F7E72DE9F341044688461746FFF705
:10113000C7FC94F840300646012B4DD001232568AA
:1011400084F8403094F84100C0B2984242D1002364
:101150006364B8F1000F38D0122384F841302B6952
:101160000133E3622B69C4F824800133A3626B6905
:1011700023F040636B61E36A9BB900973346012219
:1011800002212046FFF7E9FE10B923680222DA6047
:10119000012384F84130002384F8403002B0BDE8D8
:1011A000F08100973346012204212046FFF7D5FE47
:1011B0000028EDD1636A1B7885F82030636A01331B
:1011C0006362E36A013BE362D5E7636C43F00803C3
:1011D0006364E0E70220DEE70220DFE72DE9F34168
:1011E000044617468846FFF76BFC25680646AA6941
:1011F00094F84030012B50D0012384F8403094F80B
:101200004100C0B2984246D100236364B8F1000F98
:101210003CD0222384F841302B690133A3632B692E
:10122000C4F83080013363636B6923F0406343F09B
:1012300080636B6123689A61A36B9BB90097334607
:10124000012202212046FFF788FE10B923680222FE
:10125000DA60012384F84130002384F8403002B082
:10126000BDE8F08100973346012206212046FFF7B2
:1012700074FE0028EDD195F82020236B1A70236BA3
:1012800001332363A36B013BA363D5E7636C43F096
:1012900008036364E0E70220DEE70220DFE72DE9D0
:1012A000F7430446984689461646FFF709FC94F82A
:1012B00040300746012B45D0012384F8403094F894
:1012C0004150EDB29D423BD142230022CDF8008037
:1012D0002021626484F8413003462046FFF73DFE3A
:1012E00040BB2368204632689A62236872685A625B
:1012F0002368B268DA62216833690A6843F48003BC
:1013000022F4400213434FF000620B604946F36839
:10131000C9F82830FFF75EFDCDF800803B462A462D
:1013200008212046FFF719FE20B923680822DA6059
:1013300084F84150002384F8403003B0BDE8F083C6
:101340000220F7E70220F8E7F7B5044617460E46F5
:10135000FFF7B6FB94F840200346012A36D001225D
:1013600084F8402094F84120012A2DD100228221C6
:101370002046626484F84110A16C00912021FFF79F
:10138000ECFD0546D0B922687968136823F008039C
:101390000B4313607B68082B0AD123683A681A63F1
:1013A00010222368DA602268136843F48013136004
:1013B0004FF0406231462046FFF70CFD002384F8D1
:1013C0004030284603B0F0BD0225F7E70225F8E7D4
:1013D000F8B5044608B9012090E00368DD075ED443
:1013E0002368980700F1AC802368DA0623D5AB4B5D
:1013F0001A69996A02F03802082A07D0182A40F0C0
:10140000008101F00302012A40F0FB801B68DB052C
:1014100002D5E369802BDED1FFF758FB41F20303CD
:101420009E4A9842216A00F2E580536823F0F8430F
:1014300043EA816353602368190700F11B81236825
:101440009A0600F1408123685D0722D5944D2B68F0
:1014500043F480732B60FFF733FB06462B68DA05F5
:1014600040F15681A2688D4B012A40F058811A6FD5
:1014700042F001021A67A368002B00F06781FFF7B2
:101480001FFB864D064641F288372B6F9B0740F1C4
:101490005681606A002840F0698100202EE07F4B71
:1014A0001A69996A02F03802102A05D0182A0AD15E
:1014B00001F00302022A06D11B68990390D56368E4
:1014C000002B8DD187E76268744BB2F5803F16D14F
:1014D0001A6842F480321A6063680BB3FFF7F0FABF
:1014E0006E4D064641F288372B689A033FF578AF78
:1014F000FFF7E6FA801BB842F6D90320F8BD3AB9E7
:101500001A6822F480321A601A6822F48022E2E714
:10151000B2F5A02F1A68F4D142F480221A60D7E7FE
:10152000FFF7CEFA5D4D064641F288372B689B03E4
:101530007FF556AFFFF7C4FA801BB842F6D9DCE757
:10154000564B1A69996A12F0380203D0182A1BD137
:101550008E0719D11B685D0703D5E368002B3FF4A4
:101560003AAFFFF7B3FA41F203034C4A98422169BC
:10157000536895BF23F47C3323F0FE4343EA0133E1
:1015800043EA016353602FE7444DE2682B680AB3D6
:1015900023F0190313432B60FFF792FA06462B68DA
:1015A000580711D5FFF792FA41F2030322699842D6
:1015B0006B6895BF23F47C3323F0FE4343EA023388
:1015C00043EA02636B600FE7FFF77AFA801B022899
:1015D000E5D992E723F001032B60FFF771FA064685
:1015E0002B6859077FF500AFFFF76AFA801B0228C6
:1015F000F6D982E7D36823F07C5343EA0163D360D2
:1016000019E7E369254D23B32B6843F080032B6072
:10161000FFF756FA06462B68DF050DD5FFF756FA99
:1016200041F20303226A98420CD86B6823F0F84316
:1016300043EA82636B60FEE6FFF742FA801B0228F2
:10164000E9D95AE7EB6823F07C5343EA0263EB6085
:10165000F1E62B6823F080032B60FFF731FA064692
:101660002B68D8057FF5E7AEFFF72AFA801B022822
:10167000F6D942E76369094DA3B16B6F43F00103EB
:101680006B67FFF71DFA06466B6F9B073FF5D7AEFA
:10169000FFF716FA801B0228F6D92EE700440258FD
:1016A000004802586B6F23F001036B67FFF708FADD
:1016B00006466B6F9F077FF5C2AEFFF701FA801BEE
:1016C0000228F6D919E7A369804D83B12B6843F44A
:1016D00080532B60FFF7F4F906462B6898043FF51A
:1016E000B2AEFFF7EDF9801B0228F6D905E72B68AB
:1016F00023F480532B60FFF7E3F906462B68990427
:101700007FF5A1AEFFF7DCF9801B0228F6D9F4E6DD
:10171000FFF7D6F9801B64287FF6A0AEEDE63AB954
:101720001A6F22F001021A671A6F22F00402A1E672
:10173000052A1A6FF5D142F004021A6797E6FFF7FF
:10174000BFF9801BB8427FF6A0AED6E6FFF7B8F926
:101750005E4D064641F288372B6F98077FF599AEAC
:10176000FFF7AEF9801BB842F6D9C6E6574D2B6994
:1017700003F03803182B7AD02B68022823F08073EB
:101780002B6067D1FFF79CF906462B6899015BD463
:10179000AB6AA26A23F47C7323F003031343E26A67
:1017A00043EA0213AB62636BA26B013B013A5B023B
:1017B00012049BB202F4FE021343226B013AC2F3FD
:1017C00008021343E26B013A120602F0FE42134391
:1017D0002B63EB6A23F00103EB626B6BA26C23F4C7
:1017E0007F4323F0F80343EAC2036B63EB6A226C86
:1017F00023F00C031343EB62EB6A626C23F00203E9
:10180000324C1343EB62EB6A43F48033EB62EB6AD6
:1018100043F40033EB62EB6A43F48023EB62EB6A40
:1018200043F00103EB622B6843F080732B60FFF7FA
:1018300047F9054623689A013FF52FAEFFF740F9B7
:10184000401B0228F6D958E6FFF73AF9801B022818
:101850009BD952E6FFF734F904462B689B017FF5CC
:101860001CAEFFF72DF9001B0228F6D945E601282A
:10187000AA6A2B6B3FF442AE02F00301A06A8142D8
:101880007FF4A9ADC2F30512E16A8A427FF4A3ADE9
:10189000226BC3F30801013A91427FF49CAD626B65
:1018A000C3F34621013A91427FF495ADA26BC3F395
:1018B0000641013A91427FF48EADE06BC3F30663BB
:1018C0000138181A18BF012018E600BF004402585A
:1018D000464B10B51A6902F03802102A00F08480D5
:1018E000182A0CD00AB1424810BD1A68414812F0BB
:1018F000200FF9D01B68C3F3C103D840F4E7996AFD
:10190000986ADA6AC0F305105C6B0028ECD007EE29
:10191000900A02F00102C4F3CC00B7EE006AF8EEC0
:10192000E76A424307EE902A01F00302012AFAEE29
:10193000E97A02D00FD3022A48D01B6BC3F3080305
:1019400007EE103AB8EEC77A77EE277A77EE867A06
:101950009FED296A37E01A68920627D51968254A4B
:10196000C1F3C1011B6BCA40C3F3080307EE102A81
:10197000F8EEC75A85EEA67A06EE903AF8EEE66AD9
:1019800076EEA77A77EE867A184B67EE877A1B6B2E
:10199000C3F34623013307EE103AF8EEC76A87EE29
:1019A000A67AFCEEC77A17EE900A9DE71B6BC3F38D
:1019B000080307EE103AB8EEC77A77EE277A77EE8B
:1019C000867A9FED0E6A86EE267ADDE71B6BC3F3FF
:1019D000080307EE103AB8EEC77A77EE277A77EE6B
:1019E000867A9FED076AEEE706487DE700440258D5
:1019F00000093D000090D0030024744A0024744C78
:101A000020BCBE4B40787D012DE9F0410D460446D7
:101A100010B90120BDE8F081884A136803F00F0374
:101A20008B42C0F0928023685E0700F19A802368A1
:101A300018070BD5824A6069D16901F070018842AC
:101A400004D9D36923F070030343D3612368D90613
:101A50000BD57B4AA069D16901F4E061884204D9C1
:101A6000D36923F4E0630343D36123689A060BD55B
:101A7000734AE069116A01F07001884204D9136A5F
:101A800023F070030343136223689B070BD56C4A52
:101A9000E068916901F00F01884204D9936923F04D
:101AA0000F03034393612368DF0768D423689E070D
:101AB00000F19B80614A136803F00F03AB4200F210
:101AC000A2802368580700F1AA80236819070BD564
:101AD0005B4A6069D16901F07001884204D2D36920
:101AE00023F070030343D3612368DA060BD5544A0D
:101AF000A069D16901F4E061884204D2D36923F47A
:101B0000E0630343D36123689B060BD54C4AE0692D
:101B1000116A01F07001884204D2136A23F0700345
:101B200003431362FFF7D4FE454B464A9B69C3F358
:101B30000323D35C03F01F03D840434B1860434B8F
:101B4000BDE8F0411868FEF75BBF136823F00F0390
:101B50000B431360136803F00F038B427FF459AFFC
:101B600061E7374A2069916901F0700188427FF688
:101B70005EAF936923F070030343936157E7304BE3
:101B8000A1689A6922F470620A439A6161681A68CE
:101B900002291DD112F4003F3FF43BAF1A6941F214
:101BA0008838274E22F007020A431A61FEF788FFA1
:101BB00007463369626803F03803B3EBC20F3FF4A2
:101BC00075AFFEF77DFFC01B4045F2D9032021E72A
:101BD000032902D112F0007FDEE7012902D112F4BD
:101BE000807FD9E712F0040FD6E7154AE0689169C3
:101BF00001F00F018842BFF45DAF936923F00F033A
:101C00000343936156E7136823F00F032B431360DC
:101C1000136803F00F03AB427FF4FBAE51E7084AB1
:101C20002069916901F070018842BFF44EAF936959
:101C300023F070030343936147E700BF0020005285
:101C400000440258201E0008000000200C00002064
:101C5000DFF834D0002103E00C4B5B5843500431D3
:101C60000B480C4B42189A42F6D30B4A02E0002371
:101C700042F8043B094B9A42F9D3FEF783FE00F089
:101C800011F8FEF729FB704700000220401E0008F3
:101C9000000000203C0400203C040020D004002070
:101CA000FEE7000070B50D4E0D4D761BB61006D048
:101CB0000024013455F8043B9847A642F9D1094E57
:101CC000094D761B00F0A0F8B61006D000240134B0
:101CD00055F8043B9847A642F9D170BD341E000860
:101CE000341E00083C1E0008341E0008024B13B1CD
:101CF000024800F005B87047000000000D1D000804
:101D0000002301461A46184600F01EB838B50A4CA2
:101D10000A4D641BA4100AD004F18043013B05EB7B
:101D20008305013C55F804399847002CF9D1BDE8EA
:101D3000384000F06FB800BF401E00083C1E00088D
:101D4000704700BF704700BF2DE9F8432B4D064692
:101D5000286898460F469146FFF7F2FF284B1C680B
:101D6000D4F84831002B3DD05A681F2A0DDC02F10F
:101D7000010C16BB0232C3F804C0286843F8227075
:101D8000FFF7E0FF0020BDE8F8831E4B7BB34FF464
:101D9000C870AFF30080034648B3D4F8482100214F
:101DA000C0E900214FF0010CC4F848010A46C0F810
:101DB0008811C0F88C11002EDCD003EB82010124C5
:101DC000C1F88890D3F8880194402043022EC3F8CC
:101DD0008801C1F80881CDD1D3F88C110C43C3F828
:101DE0008C41C7E704F5A673C4F84831BCE72868FE
:101DF000FFF7A8FF4FF0FF30C5E700BF3804002011
:101E0000301E000800000000F8B500BFF8BC08BC98
:101E10009E467047F8B500BFF8BC08BC9E467047A8
:101E20000000000001020304010203040607080980
:101E300010000020ED1C0008BD02000899020008F7
:101E40000090D0030090D0030100000010000000BB
:101E500000000000FC02002064030020CC030020EE
:101E60000000000000000000000000000000000072
:101E70000000000000000000000000000000000062
:101E80000000000000000000000000000000000052
:101E90000000000000000000000000000000000042
:101EA0000000000000000000000000000000000032
:101EB0000000000000000000000000000000000022
:101EC0000000000000000000000000000000000012
:101ED0000000000000000000000000000000000002
:101EE00000000000000000000000000000000000F2
:101EF00000000000000000000100000000000000E1
:101F00000E33CDAB34126DE6ECDE05000B000000A5
:101F100000000000000000000000000000000000C1
:101F200000000000000000000000000000000000B1
:101F300000000000000000000000000000000000A1
:101F40000000000000000000000000000000000091
:0C2270000000000000000000AC04002092
:0200000490006A
:1000000000000824650A00901D5800902B580090AD
:1000100031580090375800903D5800900000000083
:10002000000000000000000000000000E1940190CA
:10003000435800900000000031970190098601901C
:10004000B50A0090B50A0090B50A0090B50A009074
:10005000B50A0090B50A0090B50A0090B50A009064
:10006000B50A0090B50A0090B50A0090B50A009054
:10007000B50A0090B50A0090B50A0090B50A009044
:10008000B50A0090B50A0090B50A0090B50A009034
:10009000B50A0090B50A0090B50A0090B50A009024
:1000A000B50A0090B50A0090B50A0090B50A009014
:1000B000B50A0090B50A0090B50A0090B50A009004
:1000C000B50A0090B50A0090B50A0090B50A0090F4
:1000D000B50A0090B50A0090B50A0090B50A0090E4
:1000E000B50A0090B50A009000000000B50A009023
:1000F000B50A0090B50A0090B50A0090B50A0090C4
:10010000B50A0090B50A0090B50A0090B50A0090B3
:10011000B50A0090B50A009051580090B50A0090B9
:10012000B50A0090D1500090B50A0090B50A009031
:10013000B9500090B50A0090B50A0090B50A009039
:1001400000000000000000000000000000000000AF
:10015000B50A0090B50A0090B50A0090B50A009063
:10016000B50A0090B50A0090B50A0090B50A009053
:10017000B50A0090B50A0090B50A0090B50A009043
:10018000B50A0090B50A0090B50A0090B50A009033
:10019000B50A0090B50A0090B50A0090B50A009023
:1001A00065580090B50A009079580090B50A009003
:1001B000B50A0090B50A0090B50A0090B50A009003
:1001C000B50A0090B50A0090B50A0090B50A0090F3
:1001D000B50A0090B50A0090B50A0090B50A0090E3
:1001E000B50A0090B50A0090B50A0090B50A0090D3
:1001F000B50A0090B50A0090B50A0090B50A0090C3
:10020000B50A0090B50A0090B50A0090B50A0090B2
:10021000B50A0090B50A0090B50A0090B50A0090A2
:10022000B50A00908D580090A15800900000000081
:10023000B50A0090B50A009000000000B50A0090D1
:10024000B50A0090B50A0090A1500090B50A009040
:10025000B50A0090B50A0090B50A0090B50A009062
:10026000B50A0090B50A0090B50A0090B50A009052
:10027000B50A0090B50A0090B50A00900000000091
:10028000B50A0090B50A0090B50A00900000000081
:0802900000000000B50A009017
:1002A00010B5054C237833B9044B13B10448AFF3B0
:1002B00000800123237010BD800500240000000091
:1002C00014B5039008B5034B1BB103490348AFF3C2
:1002D000008008BD000000008405002414B50390D0
:1002E00001F0FF01102A2BDB10F0070F08D010F8E7
:1002F000013B013A8B422DD010F0070F42B3F6D1EB
:10030000F0B441EA012141EA014122F007047FF003
:1003100000070023F0E80256083C85EA010586EA5A
:10032000010685FA47F5A3FA87F586FA47F6A5FA96
:1003300087F68EB9EED1F0BC01F0FF0102F00702A2
:1003400032B110F8013B013A83EA010313B1F8D14D
:100350000020704701387047002D06BF354603382E
:10036000073815F0010F07D1013015F4807F02BF67
:10037000013015F4C03F0130F0BC0138704700BFB8
:1003800081F0004102E000BF83F0004330B54FEA46
:1003900041044FEA430594EA050F08BF90EA020FB3
:1003A0001FBF54EA000C55EA020C7FEA645C7FEA46
:1003B000655C00F0E2804FEA5454D4EB5555B8BF69
:1003C0006D420CDD2C4480EA020281EA030382EADA
:1003D000000083EA010180EA020281EA0303362D6C
:1003E00088BF30BD11F0004F4FEA01314FF4801C3F
:1003F0004CEA113102D0404261EB410113F0004F51
:100400004FEA03334CEA133302D0524263EB430307
:1004100094EA050F00F0A780A4F10104D5F1200EA5
:100420000DDB02FA0EFC22FA05F2801841F1000100
:1004300003FA0EF2801843FA05F359410EE0A5F1D4
:1004400020050EF1200E012A03FA0EFC28BF4CF005
:10045000020C43FA05F3C01851EBE37101F00045BB
:1004600007D54FF0000EDCF1000C7EEB00006EEBC8
:100470000101B1F5801F1BD3B1F5001F0CD3490852
:100480005FEA30004FEA3C0C04F101044FEA4452A9
:1004900012F5800F80F09A80BCF1004F08BF5FEA30
:1004A000500C50F1000041EB045141EA050130BD10
:1004B0005FEA4C0C404141EB0101013C28BFB1F522
:1004C000801FE9D291F0000F04BF01460020B1FA6D
:1004D00081F308BF2033A3F10B03B3F120020CDA40
:1004E0000C3208DD02F1140CC2F10C0201FA0CF01E
:1004F00021FA02F10CE002F11402D8BFC2F1200C83
:1005000001FA02F120FA0CFCDCBF41EA0C01904038
:10051000E41AA2BF01EB0451294330BD6FEA040481
:100520001F3C1CDA0C340EDC04F11404C4F120026C
:1005300020FA04F001FA02F340EA030021FA04F37E
:1005400045EA030130BDC4F10C04C4F1200220FAD5
:1005500002F001FA04F340EA0300294630BD21FA13
:1005600004F0294630BD94F0000F83F4801306BFD9
:1005700081F480110134013D4EE77FEA645C18BFCD
:100580007FEA655C29D094EA050F08BF90EA020F64
:1005900005D054EA000C04BF1946104630BD91EA5C
:1005A000030F1EBF0021002030BD5FEA545C05D15F
:1005B0004000494128BF41F0004130BD14F580049E
:1005C0003CBF01F5801130BD01F0004545F0FE4112
:1005D00041F470014FF0000030BD7FEA645C1ABF47
:1005E000194610467FEA655C1CBF0B46024650EA7E
:1005F000013406BF52EA033591EA030F41F40021AA
:1006000030BD00BF90F0000F04BF0021704730B52F
:100610004FF4806404F132044FF000054FF0000104
:1006200050E700BF90F0000F04BF0021704730B5C5
:100630004FF4806404F1320410F0004548BF40429A
:100640004FF000013EE700BF42004FEAE2014FEAEF
:1006500031014FEA02701FBF12F07F4393F07F4FCA
:1006600081F06051704732F07F4208BF704793F0CD
:100670007F4F04BF41F40021704730B54FF46074E0
:1006800001F0004521F000411CE700BF50EA0102E3
:1006900008BF704730B54FF000050AE050EA01028C
:1006A00008BF704730B511F0004502D5404261EBFC
:1006B00041014FF4806404F132045FEA915C3FF43D
:1006C000D8AE4FF003025FEADC0C18BF03325FEADA
:1006D000DC0C18BF033202EBDC02C2F1200300FA8B
:1006E00003FC20FA02F001FA03FE40EA0E0021FAB0
:1006F00002F11444BDE600BF7BB972B90029BEBF48
:1007000000204FF0004106E008BF00281CBF6FF03A
:1007100000414FF0FF3000F0A3B9ADF1080C6DE9D6
:1007200004CE002909DB002B1ADB00F035F8DDF8D8
:1007300004E0DDE9022304B07047404261EB41016F
:10074000002B1BDB00F028F8DDF804E0DDE90223D4
:1007500004B0404261EB4101524263EB43037047F6
:10076000524263EB430300F017F8DDF804E0DDE9E3
:10077000022304B0404261EB41017047524263EBF7
:10078000430300F009F8DDF804E0DDE9022304B0DA
:10079000524263EB430370472DE9F047089E0D4634
:1007A00004460F46002B4AD18A42944665D9B2FAD4
:1007B00082F343B102FA03FCC3F120029F4020FA06
:1007C00002F217439C404FEA1C4E1FFA8CF5B7FB10
:1007D000FEF1220C0EFB117742EA074201FB05F005
:1007E00090420AD91CEB020201F1FF3780F01C8114
:1007F000904240F2198102396244121AA4B2B2FB4B
:10080000FEF00EFB102244EA024400FB05F5A5426F
:100810000AD91CEB040400F1FF3280F00781A542E5
:1008200040F204816444023840EA0140641B002124
:100830001EB1DC400023C6E90043BDE8F0878B42CF
:1008400008D9002E00F0ED800021C6E90005084619
:10085000BDE8F087B3FA83F1002949D1AB4202D356
:10086000824200F2F880841A65EB030201201746E9
:10087000002EE2D0C6E90047DFE702B9FFDEB2FA98
:1008800082F3002B40F090808A1A4FEA1C471FFA2F
:100890008CFE0121B2FBF7F507FB1520220C42EA82
:1008A00000420EFB05F0904208D91CEB020205F154
:1008B000FF3802D2904200F2CB804546121AA4B211
:1008C000B2FBF7F007FB102244EA02440EFB00FEE5
:1008D000A64508D91CEB040400F1FF3202D2A6455C
:1008E00000F2BB801046A4EB0E0440EA05409FE7EF
:1008F000C1F120078B4022FA07FC4CEA030C05FAF1
:1009000001F420FA07F3FD404FEA1C492343B5FBED
:10091000F9F81FFA8CFE09FB18551C0C44EA054433
:1009200008FB0EF5A54202FA01F200FA01F00BD91C
:100930001CEB040408F1FF3A80F08880A54240F2E5
:100940008580A8F102086444641B9DB2B4FBF9F3EE
:1009500009FB134445EA044403FB0EFEA64508D9EF
:100960001CEB040403F1FF356CD2A6456AD9023BA7
:10097000644443EA0843A3FB0295A4EB0E04AC4293
:10098000C846AE4656D353D056B1B0EB080264EB1E
:100990000E0404FA07F7CA40CC401743C6E90074B6
:1009A00018460021BDE8F087C3F1200102FA03FCDC
:1009B00020FA01F225FA01F19D402A434FEA1C4733
:1009C0001FFA8CFEB1FBF7F007FB1015110C41EA82
:1009D000054100FB0EF58D4204FA03F408D91CEB27
:1009E000010100F1FF382FD28D422DD90238614428
:1009F000491B92B2B1FBF7F507FB151142EA014220
:100A000005FB0EF1914208D91CEB020205F1FF38FB
:100A100016D2914214D9023D6244521A45EA00416D
:100A200038E73146304608E73946E6E61046FBE649
:100A30004845A9D2B9EB020865EB0C0E013BA3E7D0
:100A40004546EAE72B4694E74046D1E7D0467BE7A8
:100A5000023D624432E708460AE76444023842E74E
:100A6000704700BFDFF834D0002103E00C4B5B5827
:100A7000435004310B480C4B42189A42F6D30B4AB0
:100A800002E0002342F8043B094B9A42F9D30BF0F1
:100A9000F1FA3AF059F802F0E3FD7047000008243B
:100AA0007C190490000000246C05002480050024BB
:100AB0001C080324FEE780B400AF00BFBD465DF80C
:100AC000047B704780B400AF00BFBD465DF8047B77
:100AD000704780B500AF02F0C9F802F045F800BFDA
:100AE00080BD80B582B000AF786002F0C1F800BF71
:100AF0000837BD4680BD00004068704741607047C0
:100B00004FF0E020084B094AD0F8FC1D41F08071FD
:100B1000C0F8FC1DD3F8B01F0A43C3F8B02F1A6801
:100B200042F001021A607047001000E055CEACC5DB
:100B3000511A01EB5301B1FBF3F07047014B5868B8
:100B4000704700BF001000E0704700BF10B50446BA
:100B50000C2138F0A8F8204610BD00BF03680C4AED
:100B60001B6910B5044649B193420DD1094B586831
:100B7000A26863689B1A0344636010BD934205D169
:100B8000044B5868A06010BD9847F1E79847F9E713
:100B90003D0B0090001000E0704700BF0000000017
:100BA00000B585B008220023002069469FED067B32
:100BB000CDE902238DED007B0BF03EF805B05DF82A
:100BC00004FB00BFAFF30080E00100001001000053
:100BD00030B585B000200D46144601A90190CDE93D
:100BE00002000BF0CFF8019820B10120DDE90223CB
:100BF0002A60236005B030BD10B50446042138F0EA
:100C000052F8204610BD00BF0821104808B50EF06C
:100C100027FD012801D10E4B186080210D480EF0F0
:100C20001FFD012801D10A4B5860402109480EF0F0
:100C300017FD012801D1064B9860402106480EF0AF
:100C40000FFD012801D1024BD86008BD00180258E1
:100C5000A00500240004025800000258032827D8E9
:100C6000DFE800F01D140B02124B40211248DA6835
:100C7000B2FA82F252090EF00BBD0E4B40210F4822
:100C80009A68B2FA82F252090EF002BD094B802135
:100C90000A485A68B2FA82F252090EF0F9BC054BC2
:100CA000082107481A68B2FA82F252090EF0F0BC25
:100CB000704700BFA005002400000258000402583D
:100CC00000180258032827D8DFE800F01D140B0293
:100CD000124B40211248DA68003A18BF01220EF088
:100CE000D7BC0E4B40210F489A68003A18BF01222A
:100CF0000EF0CEBC094B80210A485A68003A18BF52
:100D000001220EF0C5BC054B082107481A68003ABD
:100D100018BF01220EF0BCBC704700BFA005002424
:100D2000000002580004025800180258032813D883
:100D3000DFE800F00E0A0602402108480EF0C1BCB0
:100D4000402107480EF0BDBC802105480EF0B9BC1B
:100D5000082104480EF0B5BC704700BF00000258DF
:100D6000000402580018025800207047012380F840
:100D7000781080F879307047002070470A1E034BC6
:100D8000416418BF01221A70704700BFE3FB0224C0
:100D900000207047836B084603B11847704700BFB7
:100DA0004FF6FF70704700BF704700BF10B5044694
:100DB0001CF060FB23682046D3F8AC30BDE810403F
:100DC000184700BF02F06AB802F06EB810B502F022
:100DD00009F912480023C0F88430BFF34F8FD0F8D0
:100DE000803043F6E074C3F34E3CC3F3C90E4FEAC0
:100DF0004C1C0CEA0401734641EA8372013BC0F8C3
:100E000074225A1CF8D1ACF1200C1CF1200FF0D147
:100E1000BFF34F8FBFF36F8F10BD00BF00ED00E039
:100E200002F018B802F060B902F04AB902F01CB83A
:100E300008B5094B1B888B4208D8084B1B88934286
:100E400004D80748074B01801A8008BD064B9E2135
:100E5000064A074839F024FBD8FB0224DAFB0224B7
:100E6000DEFB0224E0FB022468B60390CCB60390BC
:100E700010B703901BF07ABE1BF04EBD10B50446B0
:100E8000882137F010FF204610BD00BF90F87A305F
:100E90001BB1406803681B6818471846704700BFBD
:100EA00090F8782090F834309A420B4B1A780BD097
:100EB0004AB90A4A4FF0010C0949108883F800C06A
:100EC0000B88088013807047002AFCD0034A4FF03B
:100ED000000C0349F1E700BFDCFB0224DAFB02242B
:100EE000D8FB02244068044A03689B69934201D1FD
:100EF00000207047184700BF690D009038B50446C0
:100F000002F06EFA0B4A23680B49D3F88C309342F7
:100F10000DD10A4B012261641A7004F17C05284648
:100F2000FFF7EEFD0123256184F8703038BD2046BF
:100F30009847F2E77D0D0090000000D0E3FB02240B
:100F4000A9B10264003AC16318BF01220C490A70BA
:100F500002680C49D2F88C208A4206D1191E0A4A2E
:100F6000436418BF01211170704719461047074BA1
:100F700040F2D221064A074810B539F091FA00BF75
:100F8000E2FB02247D0D0090E3FB022458B703909E
:100F900090B7039010B7039008B503680446174D47
:100FA000D3F880309847236820469B6F984701F01C
:100FB000E1F9236820461B6F98470122042110485D
:100FC0000EF066FB012280210E480EF061FB01222B
:100FD0000D4811460EF05CFB01F0CCF92368204669
:100FE0001B6FAB4207D11CF045FA23682046D3F8AB
:100FF000AC309847F0E79847EEE700BFAD0D0090A2
:1010000000000258000C02580028025808B5074B8F
:1010100028B1186801211CF047FA012008BD0146DB
:1010200018681CF041FA012008BD00BFE4FB02244F
:101030004069704790F84000704700BF036B0BB1E8
:1010400001207047C06A003818BF0120704700BFF8
:1010500080687047704700BF04308C460FC88CE82A
:101060000F007047704700BF08B5034A4FF4FA718C
:10107000024B034839F014FABCB80390B8B8039097
:1010800018B9039010B50446482137F00CFE2046ED
:1010900010BD00BFF8B5036801292F4E0446DB6A76
:1010A00038BF0121B3420D4642D1836899422AD804
:1010B0006B1EE269206B02EB031750B3A36B0F2B7F
:1010C00041D9036807F10806DB6831469847206B71
:1010D0001022616B03681B699847B0B1236BE6630C
:1010E000BBB1626B937A517A1B0443EA0123117AF4
:1010F000D27A0B4343EA0263226A6561043A1A44D6
:10110000A261F8BDA3681D46D2E70D2384F84030E4
:10111000E4E707F11003E26AD118D25C48788B78D3
:10112000C9781B0442EA016243EA00231343E3E760
:1011300098478542BCD92368DB6AB342E2D0204697
:1011400098470546B4E70920044B054AB02184F8C6
:101150004000044839F0A4F95110009080B9039080
:1011600094B9039018B9039043692DE9F047002B17
:1011700000F0C0800546006BAC69002800F0A0803C
:10118000AB6B072B40F2AB8003682146DB689847C6
:10119000286B0822696B03681B699847002800F0D8
:1011A0008B80AB69286B1A1DEC63002800F08A80E5
:1011B000121B6C6BA118A25C8C784E78240444EA54
:1011C00006241443CA7844EA02640D2743F2300629
:1011D0003AE0AB6B072B40F2828003682146DB6864
:1011E0009847286B0822696B03681B69984708B900
:1011F00085F84070286BAB69EC63002878D01B1B26
:10120000696BCA18CB5C947992F805A0240492F813
:1012100004C092F8019044EA0A24D17992F803803C
:1012200043EA092392F802E044EA0C044EEA082259
:1012300044EA016446F26431B34208BF8A420CBFFB
:101240000123002335D0AB691C44AB6A04F10802CA
:101250009A4229D26B690934013324F00104C5E9AB
:1012600005340028B5D1E96A04F1040EA21C01EB93
:10127000040C0B5D9CF8014001EB0E0C43EA0423C7
:101280008C188A5C647811F80E1042EA04229CF8EB
:1012900001E09CF802409CF803C0240441EA0C6180
:1012A00044EA0E240C43C5E701212A6A0023C5E95C
:1012B00005121846BDE8F0870D2385F8403070E729
:1012C000221D2346EC6AA118A25C4E788C78C9785E
:1012D000240442EA016244EA0624144375E7092023
:1012E000074B084AB02185F84000074839F0D8F884
:1012F0001C46B8E7054BF621054A034839F0D0F8FB
:1013000080B9039094B9039018B90390D8B90390A9
:1013100024BA039010B5002204460E4B012011465A
:10132000E263236084F84020C4E90522C4E907226F
:10133000C4E90922C4E90B22C4E90D22C4E903224D
:10134000C4E9012217F045FB034B024620461A6010
:1013500010BD00BF7CBB0390286200242DE9F04F34
:101360000021066B83B00546816180F84010002E95
:1013700000F0B481836B472B40F2658233683046BE
:10138000DB689847286B4822696B03681B6998479C
:10139000002800F0CE8000232E6BAF69B146EB63CE
:1013A000002E00F09C81D5F834A00422C3490AEB3A
:1013B000070B584639F016FB002840F04D8207F124
:1013C00008000422BE49A861504439F00BFB0028F4
:1013D00040F05D8207F10C080422BA490AEB0800CC
:1013E000C5F8188039F0FEFA0190002840F04582D7
:1013F0009BF812409BF8112024049BF8133044EA18
:1014000002249BF81020144354EA036400F02E8257
:1014100007F114000422AC49504439F0E3FA0028E3
:1014200000F08B800623DDF804B007F1180085F882
:10143000403050440422A54939F0D4FA002800F085
:101440008F80072385F8403044440834B9F1000FF9
:1014500015D0AB6B0B2B40F2F681D9F8003021464A
:101460004846DB689847286B0C22696B03681B6948
:10147000984710B90D2385F840302E6BEC6395F832
:101480004090934F04F10808002E41D0EB6B0422EA
:10149000686B3946A8EB0303184439F0A3FA002817
:1014A0003ED0B9F1000F3ED1AB6AA34240F2B18009
:1014B0000434002E46D0EA6BD5E90D13A41A0B2B89
:1014C00001EB0402095D947850784FEA0444D27825
:1014D00044EA002444EA010444EA0264444440F239
:1014E000B281336821463046DB689847286B0C226E
:1014F000696B03681B69984710B90D2385F8403064
:101500002E6B04F1080895F84090EC63002EBDD1D5
:10151000E86A04223946404439F064FA0028C0D110
:10152000B9F1000F75D00A2385F8403003B0BDE84B
:10153000F08F0D2385F840302DE707F118004FF0AC
:10154000010B76E7EB6A1A191B5D51789478D27813
:10155000240443EA026344EA01241C43444491E71F
:10156000BBF1000F3FF470AF07F12001B9F1000F9C
:1015700000F02581EB6B6A6BC91AC3F13000DFF80C
:1015800058C112F801A002EB010EC3F14001C3F1F2
:10159000440338449EF801B039441F449EF8023099
:1015A0009EF803E01B0443EA0B2343EA0A0343EAE1
:1015B0000E63ACFB03C302EB000C9B096B609CF851
:1015C00002309CF801A01B0412F800E09CF803C054
:1015D000501843EA0A2343EA0E0343EA0C63AB6064
:1015E000837890F801C01B04515C43EA0C230B4341
:1015F000C17843EA0163D119EB608B7848781B040A
:10160000D25D43EA00231343CA7843EA02632B61A5
:101610001AE704F10C030434AB61002E00F0B4802F
:10162000EB6BE41AD5E90D1204F1020C671C11F8FA
:1016300004E0E01C11F80C30032A11F807904FEA7F
:10164000034343EA092343EA0E0311F800E043EAA7
:101650000E6343446B6211F80C3011F807C00F5D44
:101660004FEA0344095C44EA0C2444EA070444EAD0
:101670000164444440F2E780336821463046DB6829
:101680009847286B0422696B03681B6998470028F8
:101690006AD02B6BEC63002B00F00381686B042293
:1016A0000C4939F09FF9002868D10122AB69EC613F
:1016B0006A612B6203B0BDE8F08F00BF58BA039097
:1016C00010BB039008BB039000BB0390E8BA0390E3
:1016D000F0BA0390F8BA0390D34D62103746D5F8AC
:1016E0002C900422704909EB070039F07BF900289F
:1016F00040F0B28007F1080004226C49A861484418
:1017000039F070F9002840F0C28007F10C0804227B
:10171000674909EB0800C5F8188039F063F983467A
:10172000002840F0AA8007F1100309EB030219F822
:10173000033051789478D278240443EA026344EA6F
:1017400001241C4300F0928007F11400042259493F
:10175000484439F047F958B907F118004FF0010B28
:1017600048444FF0000965E60D2385F8403090E7C6
:10177000062307F1180085F84030F1E70B2385F8C0
:10178000403003B0BDE8F08FE86A0219015D567879
:1017900093781B0443EA0623D67841EA06610B439B
:1017A00043446B62035D51789478D278240443EA11
:1017B000026344EA01241C43444420446FE7EA6A7C
:1017C00007F1300E07F1400C4437501812F801B001
:1017D00002EB0E0190F801A08378C0781B044BEA5D
:1017E000006043EA0A2303433348A0FB03039B0939
:1017F0006B6012F80E0091F801E08B78C9781B0439
:1018000040EA016143EA0E2302EB0C0E0B43D119AF
:10181000AB6012F80C009EF801C09EF802309EF8F2
:1018200003E01B0440EA0E6043EA0C230343EB6031
:10183000D25D48788B78C9781B0442EA016243EA9A
:1018400000231343E3E609201C4B1D4AB02185F811
:1018500040001C4838F024FE03201B4B1B4A4FF469
:101860009F7185F84000174838F01AFE184B40F277
:101870005311164A134838F013FE0520154B134A2E
:1018800040F24D1185F840000E4838F009FE042062
:10189000114B0E4A4FF4A37185F84000094838F007
:1018A000FFFDE86A2044FAE658BA039010BB0390A3
:1018B00008BB039000BB0390D34D621080B9039026
:1018C00094B9039018B9039060BA03907CBA03905E
:1018D000DCBA0390C4BA0390ACBA039010B40024ED
:1018E000C0E90A2104635DF8044BFFF737BD00BF70
:1018F00010B50B680446002208469B68C4E90B211A
:10190000984703462046A362BDE81040FFF726BD76
:10191000F0B50024204D1E46204B2C6083B0204D96
:10192000204F2C60204D1C602C60204D2C60FD68E9
:101930007F6B05EB45051B68B7EB040C1C4F4FEAAA
:10194000C515C3EBC30318BF4FF0010C00953E60F3
:10195000184E194D3460194E05EB830385F818C0F5
:101960003160174E5B68326001222C706A764FF44A
:101970005042AC606C61AC762C77AC8685F8364012
:10198000C5E90344C5E90944C5E90B440EF037FE37
:10199000204603B0F0BD00BF18620024246200247A
:1019A000B4050024BC610024B8050024FC610024B7
:1019B0000862002414620024040400241C62002431
:1019C000206200242DE9F047054602243B483C4FA5
:1019D0000461EC68DFF804912607DFF80481394ED2
:1019E00018BF24F00F04DFF8FCA018BF1034046007
:1019F0002409C4604FF4707444602C6914F00F041F
:101A000018BFC4F1100484602F48FFF781FF2F4CEA
:101A10006B6C2F4D33602B6813B13B68002B39D1B1
:101A20003068037A3BB92B4B1B68C3EBC3031AF82E
:101A30002330012B27D0D9F80030012B08D1D8F85A
:101A40000030C3EBC3031AF823300BB92B6843B340
:101A5000022323602368022B07D02368012BDAD1ED
:101A600000232B603B60BDE8F0871B4B4FF0FF313C
:101A7000186817F037F82368012BCCD100232B60AE
:101A80003B60BDE8F0873B68002BD4D103681B693D
:101A90009847D0E70C480FF055F8042809D00123E7
:101AA000D7E702210848C9F800300EF063FE022390
:101AB000CFE705480EF06EFFF1E700BFBC610024E0
:101AC000B00500240062002408B200240C62002447
:101AD00010620024B4050024286200241862002447
:101AE000246200240404002443692DE9F041002B02
:101AF00000F0AD800446006B0E46A56900285FD05B
:101B0000A36B072B40F2A98003682946DB6898473E
:101B1000206B0822616B03681B69984700284AD034
:101B2000206BA169E563002849D001F1040C8A1CEF
:101B3000636BACEB050C521B4D1B03EB0C0713F84E
:101B40000CE003EB050813F805C098F8015097F86E
:101B500001804CEA052CBD78FF782D0445EA082564
:101B600045EA0E0545EA07659F189B5C7A7843EACB
:101B700002274A19A36A02F1080E9E4514D243F2C5
:101B800030039C4539D146F264339F4235D1002D54
:101B900037D172460132636A22F001029A42A26191
:101BA00002D00120BDE8F0810122236A0020C4E9AF
:101BB0000523BDE8F0810D2384F84030B0E70D46E1
:101BC000E36AAF1C2A1D591913F805C09818497803
:101BD0004CEA012C2946DD19DF5D6D789A5C47EAF5
:101BE000052790F801E08578C37800202D0442EAAB
:101BF000036345EA0E251D43BBE7A261002DC9D151
:101C0000C7E701F10807A761F0B1A36B9D4224D893
:101C100003683946DB689847206B2A46616B036886
:101C20001B69984710B90D2384F84030616BE76356
:101C300026B133462A462046FFF7C4FED4E90532D2
:101C400001332A446361A5E7E16A3944F0E7074BB1
:101C5000C221074A074838F023FC0920064B074AEF
:101C6000B02184F84000034838F01AFCD8B903903A
:101C700018BB039018B9039080B9039094B90390EE
:101C80002DE9F04704468569006B82B00E46904608
:101C90001F46002800F0EF80A36B072B40F2008165
:101CA00003682946DB689847206B0822616B03684C
:101CB0001B699847002800F0BA80A169206B0B1DB2
:101CC000E563002800F0F5805A1B636B01F10805FD
:101CD000991813F802C0A36B8A7891F801E01204F6
:101CE000C97842EA0E2242EA0C0242EA01629342B9
:101CF000C0F0D680036829460192DB689847206BC4
:101D0000019A0368616B1B699847019A002800F0EB
:101D10008A80616BE563D4F80CE0022366481EF00C
:101D20000F0F03617AD17346C0F800E0B6F900C026
:101D30001B09B588C3606544B6F90230F6882DB238
:101D400043611E4403F00F037545C0F81CC0436394
:101D500036B228BF75464FEA1C1E0CF00F0CDFF898
:101D6000889105F10F030562C0F830C01B09C0F867
:101D700024E0DFF878A18362A3EB0E03C36223693A
:101D80009E4228BF1E4615F00F054FF4707318BF12
:101D9000C5F11005866116F00F0643608563434662
:101DA00018BFC6F11006454DDFF84481C6634448AC
:101DB000FFF7AEFD434B626C434E1F60434C444FF4
:101DC00032602B6813B13B68002B45D13068037A31
:101DD0003BB9404B1B68C3EBC3031AF82330012BFC
:101DE00033D0D9F80030012B09D1D8F80030C3EB3B
:101DF000C3031AF8233013B92B68002B33D0022306
:101E000023602368022B16D02368012BD9D100232D
:101E100001202B603B6002B0BDE8F0872EF00F037D
:101E20001033036082E70D2384F8403071E70D23FF
:101E300084F8403041E7284B4FF0FF31186816F026
:101E400051FE2368012BBCD1E1E73B68002BC8D1D0
:101E500003681B699847C4E719480EF073FE04280D
:101E60001AD00123CCE702211548C9F800300EF042
:101E700081FC0223C4E72B1DE26A05F10801D0189A
:101E80001144D35C45788278C078120443EA006339
:101E900042EA05221A433EE709480EF07BFDE0E7DF
:101EA00009200E4B0E4AB02184F840000D4838F04E
:101EB000F7FA0D46E0E700BFBC6100241062002481
:101EC00008B2002404620024006200240C62002492
:101ED000B0050024B40500242862002480B90390D2
:101EE00094B9039018B903901862002404040024E4
:101EF000246200244B68012B15D0022B0BD04BB968
:101F0000CB6858071ED18B685A0703D023F007030C
:101F100008338B607047CB681A07F4D023F00F03A7
:101F20001033CB60EFE7CB681A0703D023F00F0321
:101F30001033CB608B681807ECD023F00F031033FD
:101F40008B60704723F007030833CB60DBE700BFEB
:101F500010B40C4C0C4A236812680B449342236063
:101F600002D35DF8044B7047D21A084B1C68B2F5D7
:101F7000504F214428BF4FF450425DF8044B196084
:101F80000EF0E3BC14620024206200241C620024D2
:101F90002DE9F0414A4E96464A4F33684A4D103378
:101FA0003A69D5F800C03360484B494C196823683A
:101FB00002FB01F1C3EBC3030CEB01112960454D9A
:101FC000316805EB8303C3F814C07B698B4260D290
:101FD0002168012223688046C1EBC101C3EBC30322
:101FE00005F82120002105EB8303C3F808E02368EE
:101FF000C3EBC30305EB830319613B6B2BB1236870
:10200000C3EBC30305EB83031A763268BB699342C3
:1020100022D923682268C3EBC303013205EB830393
:10202000226000229A762368012B00D9226023685F
:10203000C3EBC30315F82330002B38D12368404687
:10204000FA68C3EBC30302EB420205EB8303D20140
:1020500059680EF08CFCBB6932689A420BD21E4B59
:102060001B681B7A0BB1BDE8F0811C4BBDE8F04149
:10207000186816F089BD2368012219494046C3EB50
:10208000C3030A60022105EB8305AA760EF01AFB52
:10209000E5E72368FA68C3EBC30302EB420205EBF2
:1020A0008303D2015968BDE8F0410EF060BC022103
:1020B00040460EF007FB0B4B01221A60BEE700BF43
:1020C000FC610024BC610024086200240462002436
:1020D00024620024040400240062002428620024F6
:1020E000106200241862002472B6FEE7014B012240
:1020F0001A60704710620024F0B51E4C0227036975
:10210000E66AA26BA6EB030C0661666AC2EB0C11D1
:102110003344266911F00F054FEA0C1C06FB03FE41
:10212000154E03EB430318BFC5F1100577634FEA63
:102130000E1E877EDB01C7B1E46BC4F1100444EAD4
:1021400001417164416902F5F07201EB0E044168CE
:10215000A2EB0C0209481944074BDC631A64084AD5
:102160001D61DA61D9601860F0BD090441F0100109
:102170007164E7E7BC610024001000520102010015
:102180000B0009FF02692DE9F04105468AB0002ADB
:1021900065D13649D1F83080C8F1100C1FFA8CFC9B
:1021A000CB6A013B9A4204D18B6BACEB03031FFA61
:1021B00083FC6E7E002E4CD14F6B10203346AC7EDC
:1021C00014B1CC6B041BA0B2D1F810E04C6A03FB35
:1021D0000EF31444013208FB0EF12A61C3EB031223
:1021E00001EB031352000EFB042204EB440401EB49
:1021F0000211E40107B10EB900222A761C4A00261A
:102200001C4F07926A693B44ADF81A000A441A4908
:10221000ADF82160086801A90592012202930368C4
:10222000ADF818C001925B6804969847134B0221E1
:102230006A68134859634FF01011224459641149D8
:10224000DF631E641E61D861DA6019600AB0BDE800
:10225000F0814B6BC3F110001F4680B2AFE74FF027
:10226000100C4FF0000801499AE700BFBC61002440
:102270001000E001BC0500240062002400100052A0
:102280000B0009FF010201000D4B0269DB6A9A4253
:1022900000D0704700220B4B027019688260013138
:1022A000028319601968012900D91A60837E13B16D
:1022B000054B01221A60054B186816F065BC00BF7B
:1022C000BC610024B4050024B00500242862002469
:1022D0000121002208B5084616F07BFB0B4B186065
:1022E00040B100220421012016F092FC084B186036
:1022F00030B108BD074B2821074A084838F0D0F80C
:10230000074B2C21044A054838F0CAF830620024F3
:102310002C620024B8BB039004BC039034BC03902F
:1023200090BC0390024B4FF0FF31186816F0DABBF7
:1023300030620024014B186816F026BC306200247D
:10234000024B0021186816F0CDBB00BF306200249C
:10235000014B186816F018BC3062002403480023B3
:1023600003491A46006816F0C7BC00BF2C6200245F
:102370003C04002410B5002382B0074C1A4601A982
:10238000206816F019FD4FF0FF33002201A92068E4
:1023900016F012FD02B010BD2C62002403685B6CC5
:1023A000184700BF0120704705494FF08062054B78
:1023B0000160C3F88820BFF34F8FBFF36F8F704762
:1023C00048BE039000E100E00F4B82B00F49D3F804
:1023D000D4200F4842F010020862C3F8D420D3F88A
:1023E000D42002F010020192019ADA6F42F010023A
:1023F000DA67DA6F22F01002DA67064B4FF080627C
:102400009A6002B0704700BF00440258A0B1002497
:102410001528009000E100E040F2EF30704700BF67
:1024200009494FF08062094B10B501600446C3F8BA
:102430008820BFF34F8FBFF36F8F40F6A45136F063
:1024400032FC204610BD00BF48BE039000E100E012
:1024500090F8A03D10B5044663B903689B6A98479D
:102460002449254A0B68C3EBC30312F82330012B20
:1024700015D010BD037A002B2BD1606803681B6850
:10248000984703460028F4D1627A002AF1D02268E6
:10249000204684F8A03D536ABDE81040184717480D
:1024A00000680028E5D1207A0028E2D1086884F885
:1024B000A03DC0EBC000237202EB8000037E0868E1
:1024C000C0EBC00002EB80007BB1BDE81040FFF71D
:1024D00059BE084B002208481B682272C3EBC30395
:1024E00000EB8300FFF7D0FEC7E7BDE81040FFF721
:1024F00003BE00BFB405002404040024B00500247A
:1025000038B58B7F0A2B3ED8DFE803F03B062A3D27
:102510003D3D3D06060606000124B1F814C0C88AF8
:102520004A8B1C4B40EA0C40A2EB0C025C635864E3
:102530000869D8631A640D68082D13D00022DC6185
:10254000154C1A61C9680A0A4809C1F3C40102F4AA
:10255000784200F4FC6002430A439A631C6038BD71
:102560000024DAE79A611A615C620C4A0C7F42EA45
:1025700004620B4CDA61CA681A625861D8601C6048
:1025800038BD0224C9E7074B8721074A074837F0BF
:1025900087FF00BF00100052010203000900010084
:1025A00001020200D4BC0390F0BC03903CBD039038
:1025B000F8B591F81DE0BEF10B0F00F2C180DFE825
:1025C0001EF0630065004C00BF00BF00BF00BF00ED
:1025D0000C000C000C000C000C00052591F81EC02E
:1025E000BCF10B0F00F2AC80DFE80CF0524B0EAAEE
:1025F000AAAAAA0606060606ACF10703032B00F2F8
:10260000A5800526012701E0002637468B8A4A8BE4
:102610000C8BC88AD21AE41A40EA0340524B1A645F
:102620009A611C614A685F6358640869D863DA601C
:102630000A68802A3BD012D8202A2CD0402A2AD0DF
:10264000042A69D10A7F494945EA026242F400320C
:10265000DA615E6258611960F8BD0025BEE7B2F527
:10266000807F67D0B2F5007F56D10C7F404A42EAA6
:102670000462DA613D4AC96819625E6258611A6093
:10268000F8BD01263746C1E70225A7E70125A5E7E2
:1026900002263746BAE70B7F334A45EA036343F421
:1026A0000033D361314B566250611360F8BD8A68C4
:1026B000141DDC620C7F117845EA046545F4003591
:1026C000DD615E625861B1B951880124D869294A37
:1026D0000139024042EA0122DA61234AD36943F018
:1026E0002003D361D3699B06FCD41023936024B3E9
:1026F0001E4B1360F8BD01292ED15188FF3CD869CB
:102700001C4A01F1FF3118BF0124024042EA0122B4
:1027100042F01002DA61E0E70A7FE645124B45EA33
:10272000026514BF144A40F2012245F40035DD6110
:102730001A60F8BD0C7F114A99E70F4B1360F8BD82
:102740000F4B66210F4A104837F0AAFE0C4B872129
:102750000E4A0D4837F0A4FE0D4B40F211110D4A00
:10276000094837F09DFE00BF001000520102020030
:1027700009000200EF00FFFF010201000A00020051
:10278000D4BC039098BD03903CBD0390F0BC039073
:10279000E4BD039000BE039010B504464068036892
:1027A0001B68984758B9637A4BB1237A3BBB2268C0
:1027B000204684F8A03D536ABDE8104018471349ED
:1027C000134A0B68C3EBC30312F82330012B00D06C
:1027D00010BD207A0028FBD1086884F8A03DC0EB2A
:1027E000C000237202EB8000037E0868C0EBC000CB
:1027F00002EB800033B1BDE81040FFF7C3BC034BD0
:102800001B6810BDBDE81040FFF776BCB40500247E
:10281000040400242C4B2D491B6810B55C68236808
:102820005A698A4222D194F8A02D92B1237A002BC2
:102830003AD1606803681B6898470346A8B9627A72
:102840009AB12268204684F8A03D536ABDE8104042
:1028500018479B6A204698471D491E4A0B68C3EBE0
:10286000C30312F82330012B04D010BD2046BDE86D
:1028700010401047184800680028F6D1207A002838
:10288000F3D1086884F8A03DC0EBC000237202EBCE
:102890008000037E0868C0EBC00002EB80007BB1C3
:1028A000BDE81040FFF76EBC094B002209481B68C9
:1028B0002272C3EBC30300EB8300FFF7E5FCB8E72C
:1028C000BDE81040FFF718BCE4FB0224512400903F
:1028D000B405002404040024B005002470B50C4B9A
:1028E0000646044600250C30602235727572706011
:1028F00044F8203B21461AF01BFF214606F55A6397
:10290000CD6024318B42FBD1304686F8A05D70BD8E
:1029100048BE0390034A1368DB07FCD4232393606B
:10292000704700BF0010005230B4114C2568ED070D
:10293000FCD423250904FF2BA56041F001014FF0D1
:10294000020565636164E0630BD00A49656241EA90
:1029500003630949E36122626061E060216030BC89
:102960007047E561029A054BA263236030BC704753
:1029700000100052090001000100020001000300E4
:10298000012070470C20704701EB410100EB8100F2
:102990000830704701EB410100EB810008307047BF
:1029A0000120704743F27C50704700BF43F27C53D4
:1029B00003FB01000830704743F27C5303FB010026
:1029C00008307047012070471820704701EB410123
:1029D00000EBC1000830704701EB410100EBC10082
:1029E00008307047084603F0E9BB00BF034B10B541
:1029F0000446036019F0E9FC204610BD00BF0390B7
:102A0000054B10B50446036019F0DFFC1421204685
:102A100036F049F9204610BD00BF0390034B10B5B6
:102A20000446036019F0D1FC204610BDCCBE0390D3
:102A3000064B10B50446036019F0C7FC43F28451FD
:102A4000204636F030F9204610BD00BFCCBE0390C2
:102A5000034B10B50446036019F0B7FC204610BDC7
:102A600098BE0390054B10B50446036019F0ADFC09
:102A70002021204636F017F9204610BD98BE03905D
:102A800010B504460C490D4A43F2B85004F54053C2
:102A900021602044C3F8B82519F097FC2046084B64
:102AA00040F8343F19F091FC2046064B40F8143FA3
:102AB00019F08BFC204610BD34BF039000BF03907B
:102AC000CCBE039098BE039010B50C4C0C4A04F594
:102AD00040530C490C48C3F8B825216019F075FC27
:102AE00020460A4B40F8343F19F06FFC2046084B53
:102AF000BDE8104040F8143F19F067BC386200246C
:102B000000BF039034BF0390F0970024CCBE039025
:102B100098BE039010B504460F4A104943F2B850CE
:102B200004F5405321602044C3F8B82519F04DFC4A
:102B300020460B4B40F8343F19F047FC094B204628
:102B400040F8143F19F041FC204643F6307136F04E
:102B5000AAF8204610BD00BF00BF039034BF039009
:102B6000CCBE039098BE03902DE9F04182B00024C2
:102B700003F024F9054603F025F9234601462246D1
:102B80002846009425F0A6F82A4B2B4A20462B4CC9
:102B90001A6005F087FE2A4B2A4A2B489A6025F0D6
:102BA00001F82368BFF35B8FDB0705D5274802B028
:102BB000BDE8F041FEF7A2B9204636F076F80028CD
:102BC000F4D0234D234F244B05F1140007F61C06C7
:102BD00005F134082B60EF6068602E61C5F808804D
:102BE00019F0F4FB1D4B40466B6119F0EFFB1C4BD9
:102BF00038466B6319F0EAFB05F54053194A03F2B6
:102C0000CC50C3F8B82505F0DBFE2A4607F11401C5
:102C1000304605F0CBFE304603F0D0FA124837F0CC
:102C20005DFC204636F04DF8084802B0BDE8F041A2
:102C3000FEF764B948FC0224B4AF002434620024D7
:102C4000B8AF002468A10024400400242CAF002465
:102C500038620024F097002434BF039098BE03909C
:102C6000CCBE039000BF0390C92A0090704700BFFC
:102C70000148FEF791B900BF2CAF002470B5274B77
:102C8000274C284E284D23603046FFF727FE284664
:102C900029F0F8FA254822F009FB254B00224FF4D1
:102CA000F0704FF48871DA621A865A6583F85820FA
:102CB0005A66DA6683F87020C3E903421D4C9C66AD
:102CC0001D4C23601D4C20801D4C20801D4C1E4837
:102CD000218001801D4C1E491E48C3E901654FF447
:102CE0008075C3E905229D64C3E90722C3E909226F
:102CF000C3E90E22C3E91022C3E91322C3E9172254
:102D0000227019601449C3F8802083F83420C3F876
:102D10008420D967C3E91D2070BD00BF58B6039059
:102D200084A1002488A10024B8AF002468A1002455
:102D30002CAF002401000001E4FB0224D8FB022494
:102D4000DEFB0224DAFB0224E0FB0224DCFB02248B
:102D5000E8B703900000010130B603900148FFF787
:102D600023BB00BF88A1002490F8252012B103687E
:102D70005B691847704700BF00207047818070472B
:102D8000C18070470181704741817047704700BF23
:102D9000704700BF704700BF704700BF704700BF5B
:102DA000B0F806C00368A2EB0C02B0F804C05B6D7B
:102DB000A1EB0C0112B209B2184700BF13684FF61D
:102DC000FF7C4FF0FF31A0F80CC0C0E90731106064
:102DD000704700BF90F825201AB190F8242002B166
:102DE000186070470020704703468A8801209A8047
:102DF000704700BF704700BF80F82610704700BFC3
:102E000090F82600704700BF4FF0000C8A68C0F8A9
:102E100000C04260704700BF0022026042607047FD
:102E2000002070470177704780ED080A704700BFA7
:102E300080F82410704700BF80F82510704700BF4D
:102E400001207047983070478C307047843070474D
:102E5000704700BF034B902283F85A2383F858230E
:102E6000704700BF00E100E0094A0A49D3680A48F8
:102E7000C3F30A03013B9BB20B801169C1F30A0142
:102E8000013901801364536B43F0010353637047AE
:102E90000010005076B0002474B00024014BD3F829
:102EA000AC00704700100050024B0122C3F8AC1078
:102EB0005A62704700100050704700BF704700BF53
:102EC000704700BF01EBC101002300EB810080F8D7
:102ED0002430704780F82C10704700BF10B50446AE
:102EE0002C2135F0E0FE204610BD00BF10B5044691
:102EF000302135F0D8FE204610BD00BF10B5044685
:102F0000BC2135F0D0FE204610BD00BF11B990F8AD
:102F10002500704708B5034A4FF49171024B0348EE
:102F200037F0BEFA54BF039040BF039070C00390C7
:102F300021B94068114603681B6B1847034B4FF4D7
:102F40008E71034A034810B537F0AAFA40BF0390C8
:102F5000B8C0039070C0039009B9C068704708B545
:102F6000034A4FF48A71034B034837F099FA00BFC4
:102F7000F8C1039040BF039070C0039021B98160F5
:102F80000161C0E90532704708B5034A4021034B8F
:102F9000034837F085FA00BF40C3039040BF039059
:102FA00070C0039008B590F824304BB9012280F826
:102FB0002420184681F83430C1F836300B6308BD40
:102FC000034B40F26B11034A034837F069FA00BF24
:102FD0008CC40390BCC4039070C0039019F0D8BC9B
:102FE00019F0E2BC19F09EBC19F0FFBD144843690A
:102FF000D90323D5002310B5C0F88430BFF34F8F19
:10300000D0F8803043F6E074C3F34E3CC3F3C90EEE
:103010004FEA4C1C0CEA0401734641EA8372013BFF
:10302000C0F874225A1CF8D1ACF1200C1CF1200F0E
:10303000F0D1BFF34F8FBFF36F8F10BD704700BF4C
:1030400000ED00E0F0B583B049BB044640681D4682
:10305000164603681B69984708B903B0F0BD134FC3
:10306000012138681AF068FA29460546684622F0B8
:1030700003F90F4B60683146BDF902401B88BDF96A
:10308000002003FB0422046805EB4202E469A04728
:1030900038680368DB6A03B0BDE8F0401847054BA9
:1030A000E921054A054837F0FBF900BFE4FB02249B
:1030B000DEFB022440BF0390D4C5039070C0039090
:1030C000084B4FF08062C3F88820BFF34F8FBFF3E7
:1030D0006F8F4FF08072C3F88820BFF34F8FBFF31C
:1030E0006F8F704700E100E0034B4FF080629A6001
:1030F0004FF080729A60704700E100E070B50029DF
:103100004FD10446052A0BD8DFE802F01133373CD3
:10311000030B00230122A0F82530C2618360036104
:1031200070BD003B18BF012380F8273070BD406898
:1031300003681B6998470028F2D00023012194F806
:103140002720A4F82510A3602361002AE8D1646831
:10315000174923689A6A8A421ED16569DB6A20464C
:1031600098478542DCD1236820469B69BDE87040C2
:1031700018470023A0F8253070BD0022C36182608B
:10318000026170BD01210022C36180F8261080F821
:1031900028108260026170BD204690472368054672
:1031A000DCE7044B6E21044A044837F079F900BF8C
:1031B0003110009040BF03901CC7039070C0039073
:1031C00070B509BB0446406811460368DB68984740
:1031D0006068104A03689B6A93420CD14069216879
:1031E00000230D4A4D6AE060954284F8283004D1EE
:1031F000A4F8253070BD9847F1E72046AC4601227F
:103200001946BDE870406047044B5E21044A0548FA
:1032100037F046F931100090FD30009040BF039028
:1032200080C8039070C0039070B519BB0446406815
:1032300094461A46036861469B6898476068104A3E
:1032400003689B6A93420CD14069216800230D4AB0
:103250004D6AE060954284F8283004D1A4F8253006
:1032600070BD9847F1E72046AC4601221946BDE8FB
:1032700070406047044B4E21044A054837F010F96E
:1032800031100090FD30009040BF0390B8C903900A
:1032900070C003902DE9F041002940F0918090F832
:1032A0002530044633B990F826301BB9012528464D
:1032B000BDE8F081454B002721691B6893F86B300E
:1032C00084F826700B4494F82810236179B9A26819
:1032D00001256169A06901FB03F300FB02F293423F
:1032E00024D80021284684F82810BDE8F08113680E
:1032F000104666685B699847E16911BB216A00293D
:103300003AD1334F94F82750336855B99A6ABA4284
:103310004DD1D6F81480DB6A30469847804542D2BA
:10332000336830469B69984705461AE094F82C109C
:1033300029B19B1A9842B3FBF0F231D922620121E4
:10334000D0E7336830465B6A98473368E5693046B2
:10335000DB6A98478542E76128BF00251C4F38BFCC
:10336000012533689B6ABB4217D17069A268236943
:103370000132E060A260ACE73268154FD2E9095231
:10338000BA4219D1706901443046A847226AA3683D
:1033900013440022A3602262B4E730469847E5E771
:1033A000013A22629EE7002384F82530D9E73046AF
:1033B000904733688046AEE730469047216AE2E79F
:1033C000044BA921044A054837F06AF8E4FB0224BB
:1033D0003110009040BF039024CB039070C0039045
:1033E00038B5044619F0EDFA23685D6E20F030FE22
:1033F00001462046A8472368134AD3F888509542CF
:1034000016D1124A0125D3F88C3002F57F311048CD
:10341000C4E90F210F4A0570934210D100230E4AD0
:10342000636413700D4B61680D4A5964536038BD75
:103430000C4A00232046A2F57F31A847F2E700217D
:1034400020469847EEE700BF410F009000FC03D0F4
:10345000E2FB02247D0D0090E3FB022434B1002442
:1034600044B0002400F807D0424870B50468BFF3A8
:103470005B8F14F0010401D03F4870BD35F015FC9E
:103480000028F9D03C4D3D4B3D4E05F134002C61F8
:10349000C5F82640C5F82A40C5E90034C5E902440C
:1034A00022F063F905F158001BF040FD3549364A1A
:1034B0003368A965C5F88420344993F85820A5F8E5
:1034C0008840296092B1D86C00283FD00368304C06
:1034D000DA6AA24217D090473368B0FA80F6D86C07
:1034E000760900283ED00368DB6A0AE09868284C19
:1034F0000268D26AA242EED1D86C20B103680126DC
:10350000DB6AA34229D1234900220023642401F16C
:103510002400C5F89C20C5F88410C5F8AC30C5F867
:10352000B030C5F8B430C5F8B830C5F8A040C5E92A
:103530002302C5E92922184A1848C5F8982036F010
:10354000CDFF0C4835F0BDFB0B4870BD9868104CA2
:103550000368DA6AA242D6D0BDE79847002808BFC0
:1035600046F00106002ECED10D4B2C210D4A0E48FF
:1035700036F096FF40B0002478B00024B0E203900B
:10358000E4FB022480CD039060CD0390F8CD03903E
:10359000212E009064E2039044E20390512E0090AB
:1035A00058CC0390B8CC0390F4CC039010B5144CD5
:1035B000236823B3134B144A1B6C11888B420AD027
:1035C0000FF0F2F8206803681B6A98470020BDE8F6
:1035D0001040FDF777BB0D4B19880FF0E5F8226816
:1035E00092F86A30013382F86A30FEF7B7FE20683D
:1035F00019F040FF0020BDE81040FDF72FBB10BDC3
:10360000E4FB02240010005076B0002474B00024C3
:1036100010B50B48FDF77EFE0A4C0B4B00224FF015
:10362000807001211C60586283F8282083F82C10D8
:103630005A60C3E90222C3E90422C3E9062210BD8D
:1036400034B1002444CE039044B0002480B500AFD0
:103650000249002017F0C6FC00BF80BD0D1000908D
:1036600080B584B000AF00F061FF6A4B5B6903F482
:103670000033002B1BD1BFF34F8F00BFBFF36F8F01
:1036800000BF644B0022C3F85022BFF34F8F00BF2E
:10369000BFF36F8F00BF5F4B5B695E4A43F400333B
:1036A0005361BFF34F8F00BFBFF36F8F00E000BFC8
:1036B000584B5B6903F48033002B38D1554B002203
:1036C000C3F88420BFF34F8F00BF524BD3F8803034
:1036D000BB60BB685B0BC3F30E037B60BB68DB089E
:1036E000C3F309033B607B685A0143F6E073134060
:1036F0003A68920747491343C1F860323B685A1E43
:103700003A60002BEFD17B685A1E7A60002BE5D11E
:10371000BFF34F8F00BF3F4B5B693E4A43F480339A
:103720005361BFF34F8F00BFBFF36F8F00E000BF47
:1037300008F004FD384834F039FB384B00221A7089
:1037400000F052FB0023FB7311E0FB7B9BB2FA7B82
:1037500019468900194449000B4419464901CB1AFE
:1037600099B22F4B23F81210FB7B0133FB73FB7BC9
:10377000022BEAD900F0B4FB62B600BF00F0B8FD3E
:1037800000F03AFD00F0B6FC00F066FC00F054FDDD
:10379000FDF791F900F09AFC00F03CFCFDF799F977
:1037A000FDF790F900F04AFF14F048FF1D4A0C2184
:1037B000052015F02DFA03461B4A13601B4A012110
:1037C000052015F025FA0346194A1360194A00210D
:1037D000194814F07DFF0346184A1360184A002167
:1037E000184814F075FF0346174A1360174A002162
:1037F000174814F06DFF0346164A1360164A00215D
:10380000164814F065FF0346154A136014F03AFF9A
:10381000FEE700BF00ED00E0784401242C04012401
:10382000703401240CCF039024B4002424CF0390DF
:1038300028B400247CCE0390E30A009014B4002442
:10384000A0CE03902D3A009018B40024C4CE03906B
:10385000B13B00901CB40024E8CE0390B93900902D
:1038600020B4002480B584B000AF0023FB6083E067
:10387000464B1B889BB21A46FB681344444A32F8F5
:103880001330A3F5004307EE903AB8EEE77ADFED88
:10389000416AC7EE267AC7ED017A0023FB7265E024
:1038A000FB7A3D4A32F813307B803C4B1B781A463A
:1038B0007B883B49920213449B000B4493ED007AB2
:1038C000FA7A7B88D7ED017A67EE277A354992023A
:1038D00013449B000B44C3ED007AFB7A324ADB00B1
:1038E000134493ED006BFA7A7B882E4992021344BD
:1038F0009B000B44D3ED007AB7EEE77AFB7A36EE05
:10390000077B294ADB00134483ED007BFB7A224AC4
:1039100032F81320013291B21F4A22F813101E4AC6
:1039200032F81330B3F5806F1DD1FB7A1B031D4AAB
:10393000991800231D4A1E4834F008FB1D4B1B68D4
:103940000121184614F076FFFB7A174ADB00D118E4
:103950004FF000024FF00003C1E90023FB7A0E4A4A
:10396000002122F81310FB7A0133FB72FB7A022B41
:1039700096D9FB680233FB60FB685E2B7FF778AF5C
:1039800000BF00BF1037BD4680BD00BF8059012475
:103990008056012400000047703401242C040124C7
:1039A0002CB4002470040124580401247834012428
:1039B000784401241CB4002480B584B000AF786042
:1039C0000023FB73174B186807F10F010023002237
:1039D00015F0F2F90346BB60BB68002BF0D1FB7B0E
:1039E000013B032B1AD801A252F823F0FD390090B5
:1039F000053A00900D3A0090153A00900A4B0122CA
:103A00001A700EE0084B02221A700AE0064B0322DD
:103A10001A7006E0044B04221A7002E0024B0022E6
:103A20001A70CDE728B400242C04012480B590B08E
:103A300000AF78600023FB634FF0FF3200210320CA
:103A400014F046FFF863FB6B002BF5D0524B1B883C
:103A50009BB2B3F5C07F02D34F4B00221A80FB6BA1
:103A600003F00103002B31D04C4BBB634FF4C06318
:103A70007B637B6B002B1DDDBB6B03F01F027B6B3D
:103A800013443B63BB6BFB62BFF34F8F00BF444AE1
:103A9000FB6AC2F85C32FB6A2033FB623B6B203B63
:103AA0003B633B6B002BF2DCBFF34F8F00BFBFF3D8
:103AB0006F8F00BF00BF384B1B889BB25B00394A39
:103AC00013441946354801F0D1FA30E0364BBB6259
:103AD0004FF4C0637B627B6A002B1DDDBB6A03F081
:103AE0001F027B6A13443B62BB6AFB61BFF34F8FCB
:103AF00000BF2B4AFB69C2F85C32FB692033FB61D3
:103B00003B6A203B3B623B6A002BF2DCBFF34F8FEA
:103B100000BFBFF36F8F00BF00BF1F4B1B889BB25E
:103B20005B00204A134419461F4801F09FFA1A4BC4
:103B30001B889BB25B001B4A1344BB61C0237B61A3
:103B40007B69002B1DDDBB6903F01F027B691344F9
:103B50003B61BB69FB60BFF34F8F00BF104AFB683E
:103B6000C2F86832FB682033FB603B69203B3B6155
:103B70003B69002BF2DCBFF34F8F00BFBFF36F8FA9
